:020000040800F2
:1000000000400020150F0008AD040008AF040008F0
:1000100000000000000000000000000000000000E0
:10002000000000000000000000000000B104000813
:100030000000000000000000B3040008B504000840
:10004000650F0008650F0008650F0008650F0008C0
:10005000650F0008650F0008650F0008650F0008B0
:10006000650F0008650F0008650F0008650F0008A0
:10007000650F0008650F0008650F0008650F000890
:10008000650F0008650F0008650F0008650F000880
:10009000650F0008650F0008650F0008650F000870
:1000A000650F0008650F0008650F0008650F000860
:1000B000650F0008650F0008650F0008650F000850
:1000C0000448054B10B5834203D0044B002B00D0ED
:1000D000984710BD0C0000200C000020000000001C
:1000E00006480749091A8910CB0F591810B549104D
:1000F00003D0044B002B00D0984710BD0C0000200B
:100100000C0000200000000010B5074C2378002BE5
:1001100009D1FFF7D5FF054B002B02D0044800E0C2
:1001200000BF0123237010BD0C0000200000000060
:10013000680F0008054B10B5002B03D00449054893
:1001400000E000BFFFF7CCFF10BDC046000000007C
:1001500010000020680F000870B50C4D0C4E761B87
:10016000B61005D0002408CD01349847A642FAD134
:1001700000F0FAFE074D084E761BB61005D000249D
:1001800008CD01349847A642FAD170BDB00F0008DF
:10019000B00F0008B00F0008B40F0008F0B505005C
:1001A00083074AD0541E002A44D0CEB20300032253
:1001B00002E00135013C3DD301332E701342F8D1EA
:1001C000032C2FD9FF220A40150215432A04154398
:1001D0000F2C35D92700103F3F093E01B4461E00C1
:1001E0001A0010366644156055609560D56010326F
:1001F000B242F8D10F260C2201373F012640DB190D
:100200003700224217D03E1FB608B400A4461A0099
:100210001C1D644420C2A242FCD103240136B60056
:100220009B193C40002C05D0C9B21C191970013330
:100230009C42FBD1F0BD3400F4E714000300BFE79B
:100240002700E0E7002243088B4274D303098B4266
:100250005FD3030A8B4244D3030B8B4228D3030C96
:100260008B420DD3FF22090212BA030C8B4202D338
:100270001212090265D0030B8B4219D300E0090A60
:10028000C30B8B4201D3CB03C01A5241830B8B4269
:1002900001D38B03C01A5241430B8B4201D34B0352
:1002A000C01A5241030B8B4201D30B03C01A5241B7
:1002B000C30A8B4201D3CB02C01A5241830A8B423C
:1002C00001D38B02C01A5241430A8B4201D34B0225
:1002D000C01A5241030A8B4201D30B02C01A524189
:1002E000CDD2C3098B4201D3CB01C01A524183093D
:1002F0008B4201D38B01C01A524143098B4201D377
:100300004B01C01A524103098B4201D30B01C01AA1
:100310005241C3088B4201D3CB00C01A524183081B
:100320008B4201D38B00C01A524143088B4201D348
:100330004B00C01A5241411A00D2014652411046A8
:100340007047FFE701B5002000F006F802BDC04687
:100350000029F7D076E770477047C04630B587B0C0
:100360001422002101A8FFF719FF0F4A51698020CC
:10037000000301435161536903400093009BF02542
:10038000AD000A4C00222900200000F065FD019517
:100390000123029300230393049301A9200000F09A
:1003A0008FFC07B030BDC046001002400008004876
:1003B00072B6FEE700B593B03022002106A8FFF721
:1003C000EDFE1022002101A8FFF7E8FE02230593AD
:1003D000013B08930F33099305A800F087F8002824
:1003E0000DD107230193002302930393049300216B
:1003F00001A800F067FB002803D113B000BDFFF790
:10040000D7FFFFF7D5FF000070B500F025FCFFF720
:10041000D1FFFFF7A3FF642000F040FC8026B60068
:10042000214C3100200000F01DFD642000F036FC5E
:100430008021200000F016FD642000F02FFC8025B4
:100440006D002900200000F00DFD642000F026FC66
:100450004021200000F006FD3100200000F002FDE8
:100460008021200000F0FEFC2900200000F0FAFCB2
:100470004021200000F0F6FC0A2000F00FFC3100C3
:10048000200000F0EFFC8021200000F0EBFC2900B0
:10049000200000F0E7FC4021200000F0E3FC0A20EF
:1004A00000F0FCFBB7E7C04600080048FEE7FEE7A7
:1004B0007047704710B500F0DFFB10BD82B00A4BEB
:1004C000996901221143996199690A400092009A41
:1004D000DA69802149050A43DA61DB690B4001933F
:1004E000019B02B07047C0460010024070B582B058
:1004F000041E00D17FE20368DB072BD5B34B5A689B
:100500000C231340042B1DD0B04B5A680C2313400E
:10051000082B0ED06368012B41D0002B56D1AB4B7A
:100520001A68AB490A401A601A68AA490A401A6058
:100530003BE0A64B5B68C02252021340802252026D
:100540009342E7D1A14B1B689B0303D56368002B43
:1005500000D153E223689B0777D59C4B5B680C2244
:100560001A4262D0994B5A680C231340082B53D07F
:10057000E368002B00D18AE0944A136801210B4301
:10058000136000F085FB0500904B1B689B0775D43A
:1005900000F07EFB401B0228F6D903202CE28B4A98
:1005A000116880235B020B4313606368002B25D026
:1005B00000F06EFB0500854B1B689B03CAD400F05E
:1005C00067FB401B6428F6D9032015E2052B09D0F0
:1005D0007E4B1A687E490A401A601A687D490A40B3
:1005E0001A60E2E7794B19688022D2020A431A6046
:1005F0001968802252020A431A60D6E700F048FBCD
:100600000500724B1B689B03A4D500F041FB401B07
:100610006428F6D90320EFE16C4B5B68C0225202DC
:100620001340802212029342A2D1684B1B689B07A1
:1006300003D5E368012B00D0E2E164490B68F8229E
:1006400093432269D20013430B6023681B0744D5F0
:10065000E369002B2ED05D4A536A01210B4353629C
:1006600000F016FB0500594B5B6A9B0735D400F080
:100670000FFB401B0228F6D90320BDE153490B684C
:10068000F82293432269D20013430B60DDE74F4AFF
:10069000136801218B43136000F0FAFA05004B4BFD
:1006A0001B689B07D1D500F0F3FA401B0228F6D94E
:1006B0000320A1E1454A536A01218B43536200F0B4
:1006C000E7FA0500414B5B6A9B0706D500F0E0FAAC
:1006D000401B0228F6D903208EE123685B0700D473
:1006E00080E03A4BDB69DB000BD4384AD1698020CB
:1006F00040050143D161D36903400193019B01256A
:1007000000E00025344B1B68DB050ED5A368012BE8
:100710001FD0002B34D12D4B1A6A01218A431A6253
:100720001A6A03318A431A6218E02B4A116880233F
:100730005B000B43136000F0ABFA0600264B1B680E
:10074000DB05E3D400F0A4FA801B6428F6D903206B
:1007500052E11E4A136A01210B431362A368002B66
:1007600024D000F095FA0600184B1B6A9B0737D47B
:1007700000F08EFA801B194B9842F5D903203BE11B
:10078000052B09D0114B1A6A01218A431A621A6A91
:1007900003318A431A62E1E70C4B1A6A04210A43C7
:1007A0001A621A6A03390A431A62D7E700F070FA2C
:1007B0000600064B1B6A9B0712D500F069FA801BE6
:1007C000064B9842F5D9032016E1C04600100240BE
:1007D000FFFFFEFFFFFFFBFF0070004088130000DB
:1007E000012D39D02368DB0610D56369012B39D080
:1007F000053357D1894A536B04218B435363536BA1
:10080000F4318B43A169C9000B43536323689B06F2
:100810006ED5824B5A680C2313400C2B60D07F4B53
:100820005A680C231340082B53D0236A002B7ED028
:100830007A4A516B80235B020B43536300F028FA22
:100840000500764B5B6BDB0352D400F021FA401BB2
:100850000228F6D90320CFE0704AD36970490B40D3
:10086000D361BFE76D4B5A6B04210A435A635A6B3D
:1008700003390A435A6300F00BFA0500674B5B6BC0
:100880009B0706D400F004FA401B0228F6D9032087
:10089000B2E062494B6BF8229343A269D200134342
:1008A0004B63B3E75D4B5A6B04210A435A635A6B9F
:1008B00003398A435A6300F0EBF90500574B5B6B31
:1008C0009B07A3D500F0E4F9401B0228F6D90320CA
:1008D00092E0524B5B68C022520213409342A4D173
:1008E0004E4B5B6BDB0303D5236A012B00D089E001
:1008F000636A002B00D187E0484A51680C220A4005
:10090000082A60D0022B25D0444A136845490B4081
:10091000136000F0BDF90400404B1B689B0150D5EB
:1009200000F0B6F9001B0228F6D9032064E03B4A28
:10093000536B3D490B40536300F0AAF90500374B58
:100940005B6BDB03D4D500F0A3F9401B0228F6D97A
:10095000032051E0314A136832490B40136000F024
:1009600097F905002D4B1B689B0106D500F090F907
:10097000401B0228F6D903203EE0284BDA6A0F21FB
:100980008A43216B0A43DA625A6828490A40E16ABD
:10099000A06A01430A435A601968802252040A433C
:1009A0001A6000F075F904001C4B1B689B0106D40B
:1009B00000F06EF9001B0228F6D903201CE000208D
:1009C0001AE0002018E0012B20D0144B5A68D96A95
:1009D000C0235B021340A06A834219D10F230B404E
:1009E000216B8B4216D1F0239B031A40E36A9A4293
:1009F00012D1002000E0012002B070BD0120FBE711
:100A00000120F9E70120F7E70020F5E70120F3E7EF
:100A10000120F1E70120EFE70120EDE7001002409F
:100A2000FFFFFFEFFFFFFFFEFFFFFEFFFF7FC2FFA5
:100A300030B589B004AA1F4B180032C832C2110069
:100A400002680A606A46103313CB13C21B68136036
:100A5000194B5A680C231340082B04D00C2B26D0BA
:100A6000164809B030BD910C0F23194004A8445C0E
:100A70001149C96A0B406946C95CC0235B021A4030
:100A800080235B029A4208D0C0235B029A4209D0BD
:100A90000A48FFF7D7FB6043E3E70848FFF7D2FBBC
:100AA0006043DEE70648FFF7CDFB6043D9E7044823
:100AB000D7E7C046800F00080010024000127A00FD
:100AC000006CDC0270B504000D00002800D186E047
:100AD000474B1A68012313408B420AD244490B68E2
:100AE000012293432B430B600B681A40AA4200D0AB
:100AF00077E023689A070ED55B0705D53D4A516814
:100B0000E023DB000B4353603A4A5368F0218B43E8
:100B1000A1680B4353602368DB0735D56368012B5D
:100B200009D0022B24D0032B28D0324A1268920716
:100B300005D4012052E02F4A1268920353D52D4963
:100B40004A680320824313434B6000F0A1F806007B
:100B5000284B5B680C221A4063689B009A4213D0B2
:100B600000F096F8801B244B9842F1D9032035E021
:100B7000204A12689201E2D401202FE01D4A526BF4
:100B8000D203DCD4012029E0194B1A680123134059
:100B9000AB4209D916490B68012293432B430B60E2
:100BA0000B681A40AA4220D123685B0706D5114A78
:100BB000536812490B40E1680B435360FFF738FF5D
:100BC0000C4B5A6812090F2313400D4AD35CD840CE
:100BD0000C4B1860032000F017F8002070BD0120B6
:100BE000FCE70120FAE70120F8E70120F6E7C0461C
:100BF000002002400010024088130000FFF8FFFFB1
:100C0000A00F00080800002010B504000F4B197851
:100C1000FA208000FFF716FB01000D4B1868FFF764
:100C200011FB00F059F900280DD1032C01D9012046
:100C30000AE0013000222100404200F01BF9054B80
:100C40001C60002000E0012010BDC0460000002014
:100C5000080000200400002010B5064A1368102187
:100C60000B4313600320FFF7CFFFFFF727FC0020A3
:100C700010BDC04600200240034A1168034B1B7898
:100C80005B1813607047C046280000200000002059
:100C9000014B18687047C0462800002070B504005A
:100CA000FFF7F6FF0500631C02D0044B1B78E41825
:100CB000FFF7EEFF401BA042FAD370BD00000020FA
:100CC000F0B583B0002357E085685F000326BE407F
:100CD000B5432E00CD68BD40354385604568A543CA
:100CE0004C682609012434409C402C43446051E068
:100CF000DD080835AD002E5805341C40A4000F2730
:100D0000A740BE430F69A7403C0034432C5055E038
:100D1000042600E00026AE4035003D430234A40026
:100D2000464EA551464C2568D4432E0026404F68B8
:100D3000FF0301D515432E00414D2E606D682E0036
:100D400026404F68BF0301D515432E003C4D6E6011
:100D5000AD682E0026404F68FF0201D515432E00D6
:100D6000374DAE60ED682C404E68B60201D52A437F
:100D70001400334AD46001330A681400DC405AD0AE
:100D800001249C402240F6D003254E683540013DA9
:100D9000012D99D903244D682C40032C09D0C46837
:100DA0005E000325B540AC4325008C68B4402C435D
:100DB000C46003244D682C40022C99D005685E0065
:100DC00003242700B740BD434F683C40B4402C4348
:100DD0000460C024A4024D682542CCD0194DAE69F0
:100DE00001242643AE61AD692C400194019C9C080E
:100DF000A51CAD00114EAF5903261E40B5000F26AD
:100E0000AE40B7439026F605B04283D00E4EB042B6
:100E10000BD00E4EB0420AD00D4EB04209D00D4E4E
:100E2000B04200D174E7052675E7012673E7022674
:100E300071E703266FE703B0F0BDC0460000014034
:100E4000000401400010024000040048000800486F
:100E5000000C004800100048002A01D08161704752
:100E60008162FCE7426913000B401B0491430B4372
:100E70008361704770B5002811DB8308144DC033BF
:100E80009B005C5903221040C000FC3216008640D3
:100E9000B44389010A40824014435C5170BDC0B222
:100EA0000F230340083B9B0806339B00094A9446E6
:100EB00063445D6803242040C000FF221400844086
:100EC000A54389010A4082402A435A60E6E7C046AA
:100ED00000E100E000ED00E001380A4B98420FD835
:100EE000094A50600948036A1B021B0AC02109060F
:100EF0000B430362002393600733136000207047A5
:100F00000120FCE7FFFFFF0010E000E000ED00E043
:100F1000704700000D4885460D480E490E4A0023D3
:100F200002E0D458C4500433C4188C42F9D30B4A9D
:100F30000B4C002301E013600432A242FBD3FFF705
:100F4000E7FFFFF709F9FFF75FFAFEE7004000202F
:100F5000000000200C000020B80F00080C0000204A
:100F60002C000020FEE70000F8B5C046F8BC08BC25
:100F70009E467047F8B5C046F8BC08BC9E46704710
:100F800002030405060708090A0B0C0D0E0F1010CA
:100F90000102030405060708090A0B0C0D0E0F10C9
:100FA0000000000000000000010203040607080919
:040FB00035010008FF
:040FB4000901000827
:0C0FB800010000000400000000127A009C
:0400000508000F15CB
:00000001FF
